S00E000031342D4144432E73726563BC
S214400000B03800202D204000F5204000F52040006C
S214400010F5204000F5204000F5204000000000009C
S214400020000000000000000000000000F520400036
S214400030F520400000000000F5204000F52040007C
S214400040F5204000F5204000F5204000F520400017
S214400050F5204000F5204000F5204000F520400007
S214400060F5204000F520400000000000051D40003F
S2144000701D1D4000351D4000F5204000F520400085
S2144000800000000000000000F5204000F520400081
S214400090F5204000F5204000F5204000F5204000C7
S2144000A0F5204000F5204000F5204000F5204000B7
S2144000B0F5204000A1244000F5204000F5204000F7
S2144000C0F5204000F5204000F520400010B5054CD6
S2144000D0237833B9044B13B10448AFF300800123AF
S2144000E0237010BD38040020000000000830400097
S2144000F0084B10B51BB108480849AFF300800848C4
S214400100036803B910BD074B002BFBD0BDE8104079
S214400110184700BF00000000083040003C040020A4
S214400120083040000000000080B487B000AFF860A0
S214400130B9607A603B60FB6801221A60FB68002267
S2144001405A60FB6840F20222C3F82021FB68002276
S214400150C3F80421FB680022C3F814217B685B00C7
S214400160BA68B2FBF3F3013B7B61FB685A687B6974
S2144001701B0299B23B680B431A43FB685A60002344
S21440018018461C37BD465DF8047B704780B483B084
S21440019000AF78600B46FB701346BB707B685A68AE
S2144001A0F978BB78DB01DBB20B431A437B685A60B5
S2144001B00C37BD465DF8047B704700BF80B485B001
S2144001C000AFF8607A601A460B46FB721346BB7265
S2144001D0FB685A68BB7A1B0703F040517B6819439B
S2144001E0FB7A1B0603F070630B431A43FB685A60A6
S2144001F01437BD465DF8047B704700BF80B483B0BB
S21440020000AF78607B6802221A600C37BD465DF806
S214400210047B704780B483B000AF78600B46FB70B9
S214400220FB78012202FA03F31A467B681A610C3700
S214400230BD465DF8047B704780B485B000AF7860FB
S2144002400B46FB700023FB60FB780F2B05D8FA7833
S2144002507B68143253F82230FB60FB68184614372C
S214400260BD465DF8047B704780B483B000AF7860CD
S21440027039607B683A685A620C37BD465DF8047B45
S214400280704700BF80B483B000AF78607B681B6B5C
S21440029018460C37BD465DF8047B704780B483B083
S2144002A000AF78607B68D3F8943043F010027B68E8
S2144002B0C3F894200C37BD465DF8047B704700BFFA
S2144002C080B582B000AF78607B68072B30D801A23B
S2144002D052F823F031034000F5024000FD02400092
S2144002E0050340000D034000150340001D03400079
S2144002F0270340000020104B984719E001200E4B82
S214400300984715E000200D4B984711E010200B4B06
S21440031098470DE02020094B984709E000203E21F1
S214400320074B984704E001203E21054B984700BF05
S2144003300837BD4680BD00BFD11D40003D1E400071
S214400340AD1E400080B582B000AF78607B68072B5A
S21440035026D801A252F823F0790340007D034000DE
S2144003607D0340008F0340008F0340008F03400012
S2144003708F0340008F034000012312E00B4B984749
S2144003800346002B14BF01230023DBB209E0084BD1
S21440039098470346002B14BF01230023DBB200E03E
S2144003A0002318460837BD4680BD00BF091E4000E2
S2144003B0251F400080B483B000AF78607B68072B71
S2144003C025D801A252F823F0E9034000EF0340008D
S2144003D0F5034000FB034000FF03400003044000D9
S2144003E0070440000B0440004FF4FA4310E04FF47B
S2144003F000430DE04FF400430AE0084B08E0084B8A
S21440040006E0084B04E0074B02E0064B00E0002302
S21440041018460C37BD465DF8047B704700093D0022
S21440042000127A00001BB70080B582B000AF0346CA
S214400430FB7100BFFB791846054B9847034683F08F
S2144004400103DBB2002BF5D10837BD4680BD00BFA7
S2144004504503400080B586B000AFF8607A603B60E8
S2144004600B46FB72FB7A18460D4B984702467B6854
S214400470B2FBF3F37B617B693A6802FB03F37B6173
S2144004803B68013B1A04074B13407A68D2B21343C9
S21440049043F47C52FB681A601837BD4680BD00BFE7
S2144004A0B50340000000FF0780B582B000AF78601B
S2144004B039603B68002B08D1084B9847084A7B6850
S2144004C01B6843F00053936205E0064B9847044A86
S2144004D07B681B68D3620837BD4680BD411F40001D
S2144004E000040E40751F400080B582B000AF7860B3
S2144004F07B68002B03D1054B9847034602E0044B2C
S2144005009847034618460837BD4680BD591F4000E9
S2144005108D1F400080B582B000AF0346FB71FB796B
S214400520033B042B08D8FB791846054B9847FB79C4
S2144005301846044B984700E000BF0837BD4680BDCC
S214400540C10240002904400080B582B000AF786008
S21440055000BF7868044B98470346002BF9D0002329
S21440056018460837BD4680BDE904400080B500AF58
S2144005700620044B9847024613469B0013449B00B4
S214400580184680BDB503400080B500AF024B984783
S21440059003465B08184680BD6D05400090B583B0A5
S2144005A000AF1148114B98470620114B98473B1D0A
S2144005B018460621012214230E4CA0473B1D184620
S2144005C000210D4B984700200C4B984710200C4BB1
S2144005D098470C4B98470C4B984703461846034B96
S2144005E098470C37BD4690BD000E2707992240001D
S2144005F01505400055044000A90440004905400048
S2144006004D1D4000FD2040008905400080B582B069
S21440061000AF78607868024B98470837BD4680BD83
S214400620A91F400080B500AF0B20044B98470C2014
S214400630024B98470D20014B984780BD0D06400061
S21440064080B500AF2A4B4FF400425A60294B98477A
S21440065013204FF06051284B984714204FF06051BC
S214400660254B984723202549234B98474C2024491F
S214400670214B984723484FF4C0614FF00062224B0D
S2144006809847402021491C4B984741201F491A4B08
S214400690984742201D49184B984743201B49164B04
S2144006A0984744201949144B984745201749124B00
S2144006B0984746201549104B9847472013490E4BFC
S2144006C098474B2011490C4B984748200F490A4BF6
S2144006D098474F200D49084B984753200B49064BE7
S2144006E098474D204FF04051034B984780BD00BF80
S2144006F050140E4025064000C518400079000028DA
S21440070059000028000E0E407D1A400001000008E7
S21440071080B48BB000AF78600B46FB707B687B6222
S214400720FB7887F823307B6AFB61FB69BB61BB695A
S2144007305B097B617B6903F5001303F207735B0279
S2144007403B6197F82330002B09D07B6AFB60FB683F
S21440075003F01F0301229A403B691A6308E07B6A54
S214400760BB60BB6803F01F0301229A403B695A6393
S2144007702C37BD465DF8047B704700BF80B584B01B
S21440078000AF78607B68C3F111037B607B68102BF9
S21440079028BF10237B607B68002B01D07B6800E07D
S2144007A001237B600023FB601AE04D200021144BA0
S2144007B098471823BB6000BFBB685A1EBA60002B20
S2144007C0FAD14D2001210E4B98471823BB6000BF3D
S2144007D0BB685A1EBA60002BFAD1FB680133FB6037
S2144007E0FA687B689A42E0D34FF40033BB6000BFA0
S2144007F0BB685A1EBA60002BFAD11037BD4680BD82
S2144008001107400080B582B000AF4D200021074B55
S21440081098474FF400337B6000BF7B685A1E7A606F
S214400820002BFAD10837BD4680BD00BF11074000F7
S21440083080B483B000AF0346FB714FF0C242FB79F1
S21440084013700C37BD465DF8047B704780B483B0A8
S21440085000AF0346FB71044AFB7913700C37BD4664
S2144008605DF8047B704700BF0200006180B400AFB3
S214400870034B1B78DBB21846BD465DF8047B7047D9
S2144008800200006180B500AF0C4B1B78012B06D1EF
S21440089000200B4B98472220094B98470CE0074B0B
S2144008A01B78022B08D12C20054B98470020044B80
S2144008B098473C20024B984780BD00BF5404002018
S2144008C03108400080B582B000AF78607B681B0C72
S2144008D0DBB21846074B98477B681B0ADBB21846C4
S2144008E0044B98477B68DBB21846024B984708375C
S2144008F0BD4680BD4D08400080B584B000AF7860EE
S21440090039600023FB6049E0FB689B007A6813442B
S2144009101B6818462E4B9847FB6801339B007A6845
S21440092013441B6818462A4B9847FB6802339B00C3
S2144009307A6813441B681846254B9847FB68033370
S2144009409B007A6813441B681846214B9847FB68FF
S21440095004339B007A6813441B6818461C4B984720
S214400960FB6805339B007A6813441B681846184B8F
S2144009709847FB6806339B007A6813441B68184602
S214400980134B9847FB6807339B007A6813441B68F1
S21440099018460F4B9847FB680833FB603B6823F0CC
S2144009A00702FB689A42AFD80AE0FB689B007A6869
S2144009B013441B681846064B9847FB680133FB6098
S2144009C0FA683B689A42F0D31037BD4680BD00BFF8
S2144009D0C508400080B582B000AF03460A46FB71AA
S2144009E01346BB8000200A4B9847FB791846084BB5
S2144009F09847BB881B0A9BB2DBB21846054B984704
S214400A00BB88DBB21846034B98470837BD4680BDC7
S214400A10310840004D08400080B584B000AF034622
S214400A203960FB711346BB7100200D4B9847FB792C
S214400A3018460B4B98470023FB7309E0FB7B3A684C
S214400A4013441B781846074B9847FB7B0133FB73D0
S214400A50FA7BBB799A42F1D31037BD4680BD00BFC2
S214400A60310840004D08400090B585B000AF0346C1
S214400A703960FB711346BB7100200D4B9847FB79DC
S214400A8018460B4B98470023FB7309E0FB7B3A68FC
S214400A90D418084B984703462370FB7B0133FB73FF
S214400AA0FA7BBB799A42F1D31437BD4690BD00BF5E
S214400AB0310840006D08400080B485B000AF7860D3
S214400AC00023FB600CE00023FB6002E0FB68013380
S214400AD0FB60FB68074A9342F8D9FB680133FB602A
S214400AE0FA687B689A42EED31437BD465DF8047BBD
S214400AF0704700BF9F86010080B487B000AFF860A3
S214400B00B9607A603B60FB681A68274B1B689A425C
S214400B1004D3254B1B685A1EFB681A607B681A680C
S214400B20214B1B689A4204D31F4B1B685A1E7B6896
S214400B301A60BB681A681D4B1B689A4204D31B4B4D
S214400B401B685A1EBB681A603B681A68174B1B68BE
S214400B509A4204D3154B1B685A1E3B681A60FB68C2
S214400B601A687B681B689A4209D9FB681B687B61D8
S214400B707B681A68FB681A607B687A691A60BB688B
S214400B801A683B681B689A4209D9BB681B687B6138
S214400B903B681A68BB681A603B687A691A601C37FB
S214400BA0BD465DF8047B704700000020040000202E
S214400BB080B582B000AF3B46D32019460422184B7E
S214400BC09847BB789BB21B029AB2FB789BB2134401
S214400BD0FB80FB8849F24132934204D1114B0222FA
S214400BE01A70002318E03B460020194602220C4BA0
S214400BF098473B789BB21B029AB27B789BB21344D1
S214400C00FB80FB8849F22532934204D1054B0122F2
S214400C101A70002300E0012318460837BD4680BD01
S214400C20690A40005404002090B585B000AF786053
S214400C307A4B98470346002B01D00123ADE1784B11
S214400C40F0221A60774B4FF4A0721A60764B1B78EE
S214400C50012B40F0F58007203321744B9847102035
S214400C600021724B984700200121704B9847012085
S214400C704FF480716D4B984702204FF4E0616B4B08
S214400C80984704200021694B9847082040F20721E6
S214400C90664B984709200021644B98470A2000215C
S214400CA0624B98470C200021604B98470D2000214E
S214400CB05E4B98470F2000215C4B98471020002140
S214400CC05A4B984711200021584B98471220002134
S214400CD0564B984713200021544B9847C820544BF6
S214400CE09847102041F29021504B9847112040F2EF
S214400CF027214E4B984732204D4B984712201B21B8
S214400D004A4B984732204A4B984713204FF4885115
S214400D10464B984729201921444B98472B200D21B4
S214400D20424B98473220424B9847302000213F4B59
S214400D30984731204FF401713C4B984732204FF48E
S214400D4000713A4B984735200721384B9847362054
S214400D5041F20441354B9847372040F20571334BFA
S214400D609847382040F20531304B9847392040F2BA
S214400D7007712E4B98473C2040F201712B4B984709
S214400D803D200E21294B984703204DF21001274B5A
S214400D90984760204FF42741244B98476120012113
S214400DA0224B98476A200021204B984780200021FC
S214400DB01E4B9847812000211C4B984782200021DB
S214400DC01A4B984783200021184B984784200021CF
S214400DD0164B984785200021144B984790201021A9
S214400DE0124B984792204FF4C061104B984795207D
S214400DF04FF488710D4B98477B681A687B685B6830
S214400E00002000210B4CA0477B689B6818460A4B85
S214400E10984700200021094B9847BDE0B10B4000A1
S214400E20000000200400002054040020D5094000A3
S214400E30B90A400025104000F10F4000191140004B
S214400E40584B1B78022B40F0A58039233B722C234D
S214400E507B720023BB723423FB7202233B7307F181
S214400E600803CB20194605224F4B984700233B7278
S214400E70AA237B72B023BB7207F10803CF20194622
S214400E800322494B984730233B7207F10803F7206B
S214400E9019460122444B984725233B7207F1080325
S214400EA0C02019460122404B984711233B7207F158
S214400EB00803C120194601223B4B98475C233B72EE
S214400EC04C237B7207F10803C52019460222364B95
S214400ED0984794233B7207F10803C720194601221E
S214400EE0314B984785233B7201237B727823BB7234
S214400EF007F10803E820194603222B4B98470023A6
S214400F003B7200237B7207F10803EA20194602224F
S214400F10254B984748233B7207F10803362019466D
S214400F200122214B984706233B7207F108033A20DB
S214400F30194601221C4B984702233B7282237B7240
S214400F402723BB720023FB7207F10803B62019461D
S214400F500422154B98477B681A687B685B680020BC
S214400F600021124CA0477B689B681846104B984758
S214400F7007F108031120194600220B4B98470A2018
S214400F800C4B984707F10803292019460022064BC8
S214400F90984701E0012300E0002318461437BD4679
S214400FA090BD00BF54040020190A400025104000A0
S214400FB0F10F4000B90A400080B500AF094B1B78DE
S214400FC0012B05D1072040F23311074B984708E024
S214400FD0044B1B78022B04D1292000210022034B0E
S214400FE0984780BD54040020D5094000190A4000A7
S214400FF080B485B000AF78600023FB6007E0084906
S214401000FB687A6841F82320FB680133FB60FB6885
S214401010EF2BF4D91437BD465DF8047B704700BF0C
S2144010205804002080B586B000AFF860B9607A609A
S2144010303B60364B1B78012B24D1FB689BB250207B
S2144010401946334B9847FB689AB27B689BB2134469
S2144010509BB2013B9BB2512019462D4B9847BB682B
S2144010609BB2522019462A4B9847BB689AB23B68B7
S2144010709BB213449BB2013B9BB253201946244B70
S21440108098473FE0214B1B78022B3BD1FB681B0A5D
S214401090DBB23B75FB68DBB27B75FA687B68134452
S2144010A0013B1B0ADBB2BB75FB68DAB27B68DBB27E
S2144010B01344DBB2013BDBB2FB7507F114032A2075
S2144010C019460422134B9847BB681B0ADBB23B7594
S2144010D0BB68DBB27B75BA683B681344013B1B0AAE
S2144010E0DBB2BB75BB68DAB23B68DBB21344DBB23B
S2144010F0013BDBB2FB7507F114032B201946042293
S214401100044B98471837BD4680BD00BF54040020A6
S214401110D5094000190A400080B582B000AF0346AA
S2144011200A46FB801346BB80084B1B78012B09D12F
S214401130FB8820201946064B9847BB882120194635
S214401140034B98470837BD4680BD00BF5404002077
S214401150D509400090B583B000AF786039601B4B2E
S2144011601B687A689A4204D2194B1B683A689A42BE
S21440117001D3012325E0174B1B78012B0FD17B6849
S2144011809AB23B689BB210461946134B9847134B8E
S2144011909847134B1B681846124B984710E00D4B68
S2144011A01B78022B0CD178683968002200230E4C3D
S2144011B0A0470A4B98470A4B1B681846094B984766
S2144011C0002318460C37BD4690BD00BF00000020E7
S2144011D004000020540400201911400085084000F7
S2144011E058040020C50840002510400090B587B040
S2144011F000AFF860B9607A603B6007F10C0007F119
S21440120008013A1D3B46264CA047F868B9687A68FC
S214401210FB68D31A5C1C3A68BB68D31A0133224673
S214401220204CA047FB689AB2BB689BB21046194652
S2144012301D4B98471D4B98477A68FB68D31A013375
S2144012403968BA688A1A013202FB03F33B613B698C
S214401250174AA2FB0323DB097B6103E01548F02114
S214401260154B98477B695A1E7A61002BF6D139692F
S2144012700F4BA3FB0123DA0913461B019B1A1B01E4
S214401280CA1A0C4811460C4B98470C4B1A680C4B24
S2144012901B6800200021034CA0471C37BD4690BD6C
S2144012A0F90A40002510400019114000850840000A
S2144012B08988888858040020F908400000000020EB
S2144012C00400002080B588B000AFF860B9607A604E
S2144012D07B68002B01D1012376E07B685B00C3F17D
S2144012E00303FB610023BB617B687B6167E0FA68B0
S2144012F0BB69D118BA687B69134408461946344B13
S2144013009847FA68BB69D118BA687B69D31A084609
S21440131019462F4B9847FA68BB69D11ABA687B6959
S2144013201344084619462A4B9847FA68BB69D11AAF
S214401330BA687B69D31A08461946254B9847FA6817
S2144013407B69D118BA68BB69134408461946204BD6
S2144013509847FA687B69D118BA68BB69D31A0846B9
S21440136019461B4B9847FA687B69D11ABA68BB691D
S214401370134408461946164B9847FA687B69D11AB3
S214401380BA68BB69D31A08461946114B9847FB6999
S214401390002B06DABB699A00FB6913440633FB61EF
S2144013A00AE0BA697B69D31A9A00FB6913440A3388
S2144013B0FB617B69013B7B61BB690133BB61BA69F9
S2144013C07B699A4293D9002318462037BD4680BD94
S2144013D05511400080B58AB000AFF860B96013463A
S2144013E0FB71FA7913469B0013449B00A3F52073C8
S2144013F0FB6100233B624DE03B6A5A00FB691344A5
S214401400BB61BB6901337B6100237B621AE0244ADF
S214401410BB6913441B781A467B6AC3F1070342FA3A
S21440142003F303F00103002B09D0FA683B6AD11896
S214401430BA687B6A1344084619461A4B98477B6A33
S21440144001337B627B6A072BE1D900237B621BE07A
S214401450134A7B6913441B781A467B6AC3F1070319
S21440146042FA03F303F00103002B0AD0FA683B6A02
S214401470D118BA687B6A1344083308461946094BA4
S21440148098477B6A01337B627B6A052BE0D93B6ACF
S21440149001333B623B6A092BAED92837BD4680BD37
S2144014A0442840005511400080B586B000AFF86033
S2144014B0B9607A60FB687B611CE07B681B780A2B0E
S2144014C008D10E231A46BB6813440233BB607B69BF
S2144014D0FB600CE07B681B78F868B9681A46094BD5
S2144014E098470A231A46FB6813440233FB607B681E
S2144014F001337B607B681B78002BDED11837BD46F6
S21440150080BD00BFD513400080B485B000AFF86002
S214401510B9607A60FA68BB681B0113447A681A603F
S2144015201437BD465DF8047B704700BF80B485B075
S21440153000AFF860B9607A60FA68BB681B01134474
S2144015407A685A601437BD465DF8047B704700BF22
S21440155080B485B000AFF860B9607A60FA68BB685E
S2144015601B01134408337A681A601437BD465DF889
S214401570047B704780B485B000AFF860B9607A608D
S214401580FA68BB681B01134408337A685A601437FC
S214401590BD465DF8047B704780B485B000AFF86008
S2144015A0B9607A607B68002B03D0FB68BA685A66DD
S2144015B002E0FB68BA681A661437BD465DF8047BDD
S2144015C0704700BF80B485B000AFF860B9607A60FD
S2144015D0FB68BA68C3F884207B685B004FF400421F
S2144015E0B2FBF3F3013BC3F30D02FB68C3F88C2058
S2144015F01437BD465DF8047B704700BF80B487B0A3
S21440160000AFF860B9607A60FB687A685A64BB6875
S214401610B3F1C05F4AD0B3F1C05F08D8B3F1006FF2
S21440162016D0B3F1805F2CD0002B69D064E0B3F1C4
S214401630205F65D0B3F1205F03D8B3F1005F4AD096
S2144016405AE0B3F1405F5BD0B3F1605F58D053E0EF
S214401650FB681B6F7B61FB681A6F7B68D9437B69AD
S2144016600B401A40FB681A67FB685B6F7B61FB6840
S2144016705A6F7B68D9437B690B401A40FB685A67B0
S2144016803AE0FB681B6F7B617A687B691A43FB68AC
S2144016901A67FB685B6F7B61FB685A6F7B68D94350
S2144016A07B690B401A40FB685A6725E0FB681B6F56
S2144016B07B61FB681A6F7B68D9437B690B401A4095
S2144016C0FB681A67FB685B6F7B617A687B691A43C5
S2144016D0FB685A6710E0FB681B6F7B617A687B6922
S2144016E01A43FB681A67FB685B6F7B617A687B69A5
S2144016F01A43FB685A6700BFFB687A685A6000E086
S21440170000BF1C37BD465DF8047B704780B584B08B
S21440171000AFF860B9607A60F868B968184B9847C7
S2144017207B6803F00103F868B9681A46154B98477A
S2144017307B6803F00A03002B03D0FB68BA681A6282
S21440174002E0FB68BA685A627B6803F00203002B2B
S21440175004D0FB68BA68C3F8802008E07B6803F0D2
S2144017600803002B03D0FB68BA68C3F88420FB68E4
S214401770BA685A61FB68BA681A601037BD4680BDC1
S214401780791840009915400080B584B000AFF860E5
S214401790B9607A603B60F868B968124B9847F86859
S2144017A0B968BA69104B98473B68002B03D0FB6872
S2144017B0BA681A6502E0FB68BA685A657B68002B0F
S2144017C003D0FB68BA681A6302E0FB68BA685A63DB
S2144017D0FB68BA681A61FB68BA681A601037BD467B
S2144017E080BD00BF791840009915400080B485B090
S2144017F000AFF860B9607A607B6803F01003002B96
S21440180020D0FB68BA68C3F8B0207B6803F020039A
S214401810002B04D0FB68BA68C3F8D42003E0FB680A
S214401820BA68C3F8D0207B6803F04003002B04D08E
S214401830FB68BA68C3F8C02008E0FB68BA68C3F81B
S214401840C42003E0FB68BA68C3F8B4201437BD462A
S2144018505DF8047B704700BF80B483B000AF78600B
S21440186039607B68DB6C7B683A681A640C37BD4627
S2144018705DF8047B704700BF80B483B000AF7860EB
S21440188039607B683A685A640C37BD465DF8047B1D
S214401890704700BF80B483B000AF78607B68DB6C75
S2144018A018460C37BD465DF8047B704780B483B05D
S2144018B000AF78607B689B6C18460C37BD465DF879
S2144018C0047B704790B587B002AF7860396078681F
S2144018D0654B9847F8603B6803F0F043B3F1005F10
S2144018E06BD0B3F1005F09D8B3F1805F2DD0B3F170
S2144018F0C05F46D0B3F1006F0BD0AEE0B3F1405FAF
S21440190000F08380B3F1605F7FD0B3F1205F70D08A
S214401910A3E07B6803F01F03012202FA03F3F86892
S2144019204FF000611A46514B98477B6803F01F03FF
S214401930012202FA03F31A463B6803F00103F868F3
S21440194011461A464A4B984789E07B6803F01F03C6
S214401950012202FA03F3F8684FF080511A46434BCF
S21440196098477B6803F01F03012202FA03F31A46E6
S2144019703B6803F00103F86811461A463C4B98470B
S2144019806DE07B6803F01F03012202FA03F3F86858
S2144019904FF0C0511A46354B98477B6803F01F03FB
S2144019A0012202FA03F31A463B6803F00103F86883
S2144019B011461A462E4B984751E07B6803F01F03AA
S2144019C0012202FA03F3F8684FF000511A46274BFB
S2144019D098477B6803F01F03012202FA03F31A4676
S2144019E03B6803F00103F86811461A46204B9847B7
S2144019F035E07B6803F01F03012202FA03F3F86820
S214401A0019463A681B4B984729E07B6803F01F034A
S214401A10012202FA03F319463B6803F06053B3F120
S214401A20605F0CBF01230023DBB21A463B6803F01D
S214401A300403002B14BF01230023DBB21C463B6883
S214401A4003F00103002B14BF01230023DBB20093F5
S214401A50F8682346084CA04701E0002300E0012335
S214401A6018461437BD4690BDA91B4000FD154000E2
S214401A70991540000D1740008917400090B587B073
S214401A8002AFF860B9607A607B6803F0F043B3F168
S214401A90005F43D0B3F1005F09D8B3F1805F1FD039
S214401AA0B3F1C05F2BD0B3F1006F0AD06DE0B3F155
S214401AB0405F48D0B3F1605F45D0B3F1205F3CD083
S214401AC063E0F8684FF00061BA68334B98477B682C
S214401AD003F00103F868B9681A46304B984756E059
S214401AE0F8684FF08051BA682B4B98477B6803F0F4
S214401AF00103F868B9681A46284B984747E0F868E3
S214401B004FF0C051BA68244B98477B6803F00103F6
S214401B10F868B9681A46214B984738E0F8684FF09D
S214401B200051BA681C4B98477B6803F00103F8687D
S214401B30B9681A46194B984729E0F868B9687A6830
S214401B40174B984723E07B6803F06053B3F1605F20
S214401B500CBF01230023DBB21A467B6803F0040364
S214401B60002B14BF01230023DBB21C467B6803F026
S214401B700103002B14BF01230023DBB20093F86857
S214401B80B9682346074CA04701E0002300E0012344
S214401B9018461437BD4690BDFD15400099154000C7
S214401BA00D1740008917400080B485B000AF7860BC
S214401BB07B685B0903F5001303F207735B02FB6067
S214401BC0FB6818461437BD465DF8047B704700BF77
S214401BD080B584B000AF7860396078682A4B984703
S214401BE0F8607868294B98470246FB681340FB60CC
S214401BF0FB68002B38D00023BB6032E0244ABB6829
S214401C001B0113441A683B689A4223D1204ABB689A
S214401C101B0113445A68FB681340002B1AD01C4A19
S214401C20BB681B01134408335B681949BA68120144
S214401C300A4410681649BA6812010A4452681146A6
S214401C409847134ABB681B0113445B68DB43FA683A
S214401C501340FB60BB680133BB60BB68062B00D9F2
S214401C6002E0FB68002BC9D10A4B1B68002B07D04B
S214401C70094B1B68002B03D0074B1B6878689847B6
S214401C801037BD4680BD00BF95184000AD184000D7
S214401C9018080020900800208C08002080B586B0E8
S214401CA000AFF860B9607A603B60134B1B68062B48
S214401CB001D901231CE0104B1B681B010F4A13443B
S214401CC07B617B69BA681A607B697A685A607B690F
S214401CD03A689A607B693A6ADA60074B1B68013358
S214401CE0054A1360F86879683A68054B98470023B8
S214401CF018461837BD4680BD8808002018080020C2
S214401D00ED17400080B500AF02480B21024B9847C4
S214401D1080BD00BF000E0E40D11B400080B500AF16
S214401D2002480C21024B984780BD00BF00100E4071
S214401D30D11B400080B500AF02480D21024B9847AA
S214401D4080BD00BF00120E40D11B400080B485B05D
S214401D5000AF78601D491D4B1B6B23F070027B68FB
S214401D6013430B634FF40063FB6007E0FB68002BF4
S214401D7001D1012323E0FB68013BFB60134B9B6EC4
S214401D8003F00803002BF1D0104A104B1B6B23F0D6
S214401D90030343F0020313634FF40063FB6007E062
S214401DA0FB68002B01D1012309E0FB68013BFB6087
S214401DB0064B9B6E03F00803002BF1D00023184619
S214401DC01437BD465DF8047B704700BF00040E40E4
S214401DD080B483B000AF78607B68012B07D1084A97
S214401DE0074B9B6843F0254343F480139360044BB2
S214401DF0044A1A600C37BD465DF8047B704700BF46
S214401E0010140E40080000A580B400AF094B5B6973
S214401E1003F08003002B07D0074B9B6E03F0800334
S214401E20002B01D0012300E000231846BD465DF894
S214401E30047B704710140E4000040E4080B483B0FC
S214401E4000AF7860184A184B1B6A43F45C1343F0A3
S214401E500803136200BF144B9B6E03F40033002B41
S214401E60F9D01149104B1B6A23F45C1323F070031E
S214401E707A68134343F45C130B6200BF0A4B9B6EB5
S214401E8003F40033002BF9D0074A074B1B6A23F0B4
S214401E909B7323F4803343F45C1313620C37BD46C4
S214401EA05DF8047B704700BF00040E4080B483B0EA
S214401EB000AF786039607B68002B08D01649164B17
S214401EC01B6A164A1A40164B13430B621EE0124911
S214401ED0114B1B6A23F45C1323F003033A68120287
S214401EE092B2134343F45C1343F001030B6200BF0A
S214401EF0094B9B6E03F00103002BF9D0064A064BB4
S214401F001B6A43F09B7343F4803313620C37BD4621
S214401F105DF8047B704700BF00040E40FCFFC8FE1F
S214401F200200370180B400AF044B9B6E03F480334D
S214401F301846BD465DF8047B704700BF00040E405F
S214401F4080B400AF034B4FF000529A62BD465DF836
S214401F50047B704700040E4080B400AF044B9B6E79
S214401F6003F002031846BD465DF8047B704700BF89
S214401F7000040E4080B400AF034B0022DA62BD4638
S214401F805DF8047B704700BF00040E4080B400AF8D
S214401F90044B9B6E03F004031846BD465DF8047B75
S214401FA0704700BF00040E4080B483B000AF786036
S214401FB07B68222B01D901232FE07B681F2B13D887
S214401FC0194B9A697B68012101FA03F31A407B6832
S214401FD0012101FA03F39A421ED0134A7B6801217D
S214401FE001FA03F3136117E07B68203B7B600E4BDE
S214401FF0D3F808217B68012101FA03F31A407B6875
S214402000012101FA03F39A4206D0074A7B68012170
S21440201001FA03F3C2F80031002318460C37BD46D8
S2144020205DF8047B704700BF00040E4080B584B066
S21440203000AF274BFB60274BBB60FA68BB689A42F1
S2144020400DD907E0BB681A1DBA60FA68111DF96021
S21440205012681A60BB68204A9342F3D320E0FA68BD
S214402060BB689A421CD21C4A1A4BD31A7B60FA6849
S2144020707B681344043BFB60BA687B681344043BAC
S214402080BB600AE0BB681A1FBA60FA68111FF960A5
S21440209012681A607B68043B7B607B68002BF1D13A
S2144020A000BF0E4BBB6004E0BB681A1DBA6000223E
S2144020B01A60BB680A4A9342F6D30A4BFB600A4A48
S2144020C0FB689360094B9847094B9847FEE700BF6B
S2144020D0083040000000002038040020380400206B
S2144020E0B00800200000400000ED00E0052740005A
S2144020F09D26400080B400AFFEE700BF80B400AF2E
S2144021005D4B1B6B03F00303032B00F2968001A28A
S21440211052F823F025214000452140008F21400001
S2144021208F214000554B5B6903F08003002B04D0A1
S214402130534B4FF400421A6080E0514B4FF4FA4242
S2144021401A607BE04C4B1B6A03F08073002B03D075
S2144021504B4B4C4A1A6019E0494B4B4A1A60464B67
S2144021601B6A03F07003102B08D0202B0AD0002BDC
S21440217000D00BE0424B444A1A6007E0404B434ACB
S2144021801A6003E03E4B3F4A1A6000BF56E03A4BA7
S2144021901B6A03F08073002B03D0394B394A1A6010
S2144021A019E0374B384A1A60334B1B6A03F070030A
S2144021B0102B08D0202B0AD0002B00D00BE0304B41
S2144021C0314A1A6007E02E4B304A1A6003E02C4B27
S2144021D02C4A1A6000BF284B1B6B03F00303022BEC
S2144021E015D1254B9A6A2A4B13401B0C0133244ABF
S2144021F0126802FB03F3224A13601F4B9B6ADBB252
S2144022001F4A1268B2FBF3F31D4A136016E01A4BDE
S214402210DA6A1F4B13401B0C0133194A126802FB43
S21440222003F3174A1360144BDB6ADBB2144A126896
S214402230B2FBF3F3124A136000E000BF0E4B1B6B79
S21440224003F07003702B08D10D4B1B68114AA2FB9C
S21440225003235B080A4A136009E0074B1B6B03F035
S21440226070031A09064B1B68D340054A1360BD46E7
S2144022705DF8047B704700BF00040E4010140E400B
S21440228008000020001BB70000093D0000127A003D
S2144022900000FF07ABAAAAAA80B483B000AF78605C
S2144022A07B68224A934208D8214B4FF080621A60DE
S2144022B0204B4FF080621A6033E07B681E4A9342A0
S2144022C006D81B4B1D4A1A601A4B1C4A1A6028E057
S2144022D07B681B4A934206D8154B1A4A1A60154B20
S2144022E0184A1A601DE07B68174A934206D8104B7E
S2144022F0164A1A600F4B154A1A6012E07B68144A59
S214402300934208D80A4B4FF004221A60094B4FF00C
S21440231004221A6005E0064B0E4A1A60054B0D4A29
S2144023201A600C37BD465DF8047B7047FF2C3101C0
S214402330000A0E40000C0E40FF59620200010004E5
S214402340FF86930300020004FFB3C40400030004A6
S214402350FFE0F5050005000480B483B000AF0346F7
S214402360FB71084997F907305B09FA7902F01F02BA
S214402370012000FA02F241F823200C37BD465DF8F2
S214402380047B704700E100E080B483B000AF0346B2
S2144023903960FB7197F90730002B0BDA0D49FB7952
S2144023A003F00F03043B3A68D2B21201D2B20B4498
S2144023B01A7609E0084997F907303A68D2B212010E
S2144023C0D2B20B4483F800230C37BD465DF8047B3D
S2144023D0704700BF00ED00E000E100E080B483B04D
S2144023E000AF78607B68072B25D801A252F823F00F
S2144023F011244000172440001D24400023244000A0
S214402400272440002B2440002F2440003324400043
S2144024104FF4FA4310E04FF400430DE04FF400430E
S2144024200AE0084B08E0084B06E0084B04E0074B80
S21440243002E0064B00E0002318460C37BD465DF828
S214402440047B704700093D0000127A00001BB7006D
S21440245080B500AF0620044B9847024613469B00C3
S21440246013449B00184680BDDD23400080B500AF76
S214402470024B984703465B08184680BD51244000EF
S21440248080B582B000AF786039600348034B984708
S2144024900837BD4680BD00BF00800340FD014000B8
S2144024A080B582B000AF0948094B984778607B6892
S2144024B003F02003002B06D004480521054B98471F
S2144024C00246054B1A600837BD4680BD0080034073
S2144024D085024000390240009408002098B500AFBD
S2144024E00A201F4B98471F4801214FF002321E4BCF
S2144024F098471C4801211D4A1D4B98471948012101
S2144025001C4A1D4B98471748012103221B4B9847EE
S2144025101B4BF0221A601A4B4FF4A0725A60184BAD
S21440252000229A60164B6FF07F42DA60154B984750
S2144025301348154B98470820144B98476FF07F4038
S214402540134B984700200021F0224FF4A073114C03
S214402550A047114B984700200021104B984798BD44
S214402560A91F400000000E400915400004040A0A56
S2144025702D1540000A001600511540007515400004
S214402580A008002005084000290C40007D074000B8
S214402590F10F4000ED114000B90F40001911400006
S2144025A090B583B002AF0C20104B984710480821D6
S2144025B05922104B98470E4808210A220E4B98473E
S2144025C00E4B00930A480C21082259230C4CA04776
S2144025D0074808210B4B98470C2000210A4B984788
S2144025E00C200A4B98470437BD4690BDA91F4000B3
S2144025F000100E400D174000C515400081244000D5
S2144026009D1C400059184000892340005923400033
S21440261098B500AF1D20154B9847154B9847034675
S21440262014481946144A4FF48023144CA0471148C6
S21440263001214FF440120123114CA0470D480021C0
S2144026400022104B98470B4805210F4B98470948E6
S2144026500E4B98471D200E4B984706480D4B984703
S214402660044820210C4B984798BD00BFA91F400046
S2144026706D2440000080034000A86100290140000E
S214402680BD0140008D014000150240009D02400003
S21440269059234000FD0140006902400080B500AF6C
S2144026A00E4B98470E4B98470E4B98470E4B984705
S2144026B00E4B984700200E4B98470A2014210D4A8F
S2144026C00D4B98470A203C210C4A0B4B98477820E4
S2144026D0AF2132220A4B9847FEE700BF9D054000D7
S2144026E041064000DD244000A12540001126400060
S2144026F0F10F4000C42F4000A9144000D02F4000E6
S214402700C512400070B50F4E0F4D761BB61018BF61
S214402710002405D0013455F8043B9847A642F9D129
S2144027200A4E0B4D761B00F05DFCB61018BF002419
S21440273006D0013455F8043B9847A642F9D170BDFF
S21440274070BD00BFF02F4000F02F4000F82F400033
S214402750F02F4000024B13B1024800F005B8704716
S2144027600000000075274000014600200246034650
S21440277000F016B838B5084B084DED1AAC1018BF27
S214402780ED1805D0013C55F8043D9847002CF9D18A
S214402790BDE8384000F030BC04304000083040000F
S2144027A02DE9F047254C2568D5F848410646884629
S2144027B092469946CCB360681F2818DC431C7EB10D
S2144027C004EB80050121C5F888A0D4F8887101FA89
S2144027D000F21743022EC4F88871C5F808911ED03F
S2144027E00230636044F820800020BDE8F087144B38
S2144027F003B34FF4C870AFF300800446D0B1D5F8A9
S2144028004831002780E88800C5F84841384601230B
S214402810C4F88871C4F88C71002EE1D0D0E7D4F8A3
S2144028208C110A43C4F88C21DAE705F5A674C5F87E
S2144028304841C0E74FF0FF30BDE8F087E02F40004A
S2144028400000000000000000000000000000000043
S2144028500000000000000000000000000000000033
S214402860FFCCFFCC0000000000000000000000008D
S214402870F000F00000000000F000F0000000000053
S2144028800CC00CC0FFFCFFFC0CC00CC0FFFCFFFCE7
S2144028900CC00CC00C601E703F303330FFFCFFFC99
S2144028A0333033F039E018C06000F00CF03C60F094
S2144028B003C00F003C18F03CC03C00183CF07FF8CA
S2144028C0C31CC78CCFCCDCEC7878303000FC00CC16
S2144028D00000000000004400EC00F800700000001B
S2144028E000000000000000000FC03FF0787860183D
S2144028F0C00CC00C0000000000000000C00CC00C63
S214402900601878783FF00FC0000000000C600EE0C2
S21440291007C003803FF83FF8038007C00EE00C6016
S21440292003000300030003003FF03FF003000300F2
S21440293003000300004400EC00F8007000000000B4
S2144029400000000000000000030003000300030036
S2144029500300030003000300030003000018003CCC
S214402960003C0018000000000000000000000000CE
S2144029700000000C003C00F003C00F003C00F000DC
S214402980C00000003FF07FF8E0FCC1CCC38CC70C11
S214402990CE0CFC1C7FF83FF000000000300C700CA2
S2144029A0FFFCFFFC000C000C00000000300C701C0C
S2144029B0E03CC07CC0ECC1CCC38CE70C7E0C3C0C2D
S2144029C030307038E01CC00CC00CC30CC30CE31C89
S2144029D07FF83CF003C007C00EC01CC038C070C0B3
S2144029E0FFFCFFFC00C000C0FC30FC38CC1CCC0C0C
S2144029F0CC0CCC0CCC0CCE1CC7F8C3F03FF07FF808
S214402A00E31CC30CC30CC30CC30CE39C71F830F03E
S214402A10C000C000C000C000C3FCC7FCCE00DC0045
S214402A20F800F0003CF07FF8E79CC30CC30CC30CE6
S214402A30C30CE79C7FF83CF03C007E00E70CC30CE0
S214402A40C31CC338C370E7E07FC03F80000000006F
S214402A50000018603CF03CF01860000000000000E9
S214402A6000000000000018443CEC3CF818700000E1
S214402A70000000000000030007800FC01CE0387014
S214402A807038E01CC00C00000CC00CC00CC00CC061
S214402A900CC00CC00CC00CC00CC00CC00000C00C5D
S214402AA0E01C703838701CE00FC007800300000040
S214402AB030007000E000C000C1ECC3ECC300E6008C
S214402AC07E003C0030F071F8E39CC30CC3FCC3FCB2
S214402AD0C00CE01C7FF83FF03FFC7FFCE0C0C0C06D
S214402AE0C0C0C0C0C0C0E0C07FFC3FFCFFFCFFFCD5
S214402AF0C30CC30CC30CC30CC30CE79C7FF83CF060
S214402B003FF07FF8E01CC00CC00CC00CC00CE01CB2
S214402B1070383030FFFCFFFCC00CC00CC00CC00C42
S214402B20C00CE01C7FF83FF0FFFCFFFCC30CC30C5E
S214402B30C30CC30CC30CC30CC00CC00CFFFCFFFC86
S214402B40C300C300C300C300C300C300C000C0002E
S214402B503FF07FF8E01CC00CC00CC30CC30CE31C59
S214402B6073F833F0FFFCFFFC030003000300030090
S214402B7003000300FFFCFFFC00000000C00CC00C7C
S214402B80FFFCFFFCC00CC00C00000000003000380A
S214402B90C01CC00CC00CC01CFFF8FFF0C000C0003A
S214402BA0FFFCFFFC078007800FC01CE038707038C1
S214402BB0E01CC00CFFFCFFFC000C000C000C000CE2
S214402BC0000C000C000C000CFFFCFFFC70003800F2
S214402BD01F001F0038007000FFFCFFFCFFFCFFFCDE
S214402BE01C000E000700038001C000E0FFFCFFFC55
S214402BF03FF07FF8E01CC00CC00CC00CC00CE01CC2
S214402C007FF83FF0FFFCFFFCC300C300C300C300D7
S214402C10C300E7007E003C003FF07FF8E01CC00C9D
S214402C20C0CCC0ECC07CE0387FFC3FECFFFCFFFC37
S214402C30C300C380C380C3C0C3C0E7707E3C3C1C97
S214402C403C187E1CE70CC30CC30CC30CC30CC39CC3
S214402C50E1F860F0C000C000C000C000FFFCFFFC10
S214402C60C000C000C000C000FFF0FFF8001C000C11
S214402C70000C000C000C001CFFF8FFF0FFC0FFE04B
S214402C8000700038001C001C00380070FFE0FFC0D9
S214402C90FFF0FFF8001C003C00F800F8003C001C69
S214402CA0FFF8FFF0F03CF87C1CE00FC00780078080
S214402CB00FC01CE0F87CF03CFC00FE0007000380E0
S214402CC001FC01FC03800700FE00FC00C03CC07C09
S214402CD0C0ECC1CCC38CC70CCE0CDC0CF80CF00C92
S214402CE000000000FFFCFFFCC00CC00CC00C000045
S214402CF000000000300030000C000C000300030011
S214402D0000C000C00030003000000000C00CC00C06
S214402D10C00CFFFCFFFC0000000000000C001C0084
S214402D2038007000E000E000700038001C000C0026
S214402D30000C000C000C000C000C000C000C000CEE
S214402D40000C000C00000000C000E00070003800DE
S214402D501800000000000000003006780EFC0CCC86
S214402D600CCC0CCC0CCC0ECC07FC03F8FFFCFFFCC8
S214402D70030C030C030C030C030C039C01F800F03B
S214402D8003F007F80E1C0C0C0C0C0C0C0C0C0E1C58
S214402D900738033000F001F8039C030C030C030CC7
S214402DA0030C030CFFFCFFFC03F007F80EDC0CCC16
S214402DB00CCC0CCC0CCC0EDC07D8039000000300E7
S214402DC03FFC7FFCE300E3007000300000000000A2
S214402DD00318079C0FCC0CCC0CCC0CCC0CCC0CDCCD
S214402DE00FF807F0FFFCFFFC03000300030003009E
S214402DF0038001FC00FC0000000000000000000012
S214402E001BFC1BFC0000000000000000000000301F
S214402E100038001C000C000C001CCFF8CFF000005F
S214402E200000FFFCFFFC00E001E003F007380E1C4A
S214402E300C0C000000000000C00CC00CFFFCFFFCA7
S214402E40000C000C000000000FFC0FFC0E000700FA
S214402E5003C003C007000E000FFC0FFC0FFC0FFC66
S214402E60030007000E000C000C000E0007FC03FCDD
S214402E7003F007F80E1C0C0C0C0C0C0C0C0C0E1C67
S214402E8007F803F00FFC0FFC0CC00CC00CC00CC0C5
S214402E900CC00FC007800300030007800FC00CC0A3
S214402EA00CC00CC00CC00CC00FFC0FFC0FFC0FFC81
S214402EB0038007000E000C000C000E000700030005
S214402EC00318079C0FCC0CCC0CCC0CCC0CCC0CFCBC
S214402ED00E78063000000C000C00FFF0FFF80C1CCB
S214402EE00C1C0C380C3000000FF00FF8001C000CC7
S214402EF0000C000C000C001C0FF80FF00FC00FE089
S214402F0000700038001C001C003800700FE00FC036
S214402F100FF00FF8001C001C00F800F8001C001C06
S214402F200FF80FF00C0C0E1C073803F001E001E020
S214402F3003F007380E1C0C0C0C000E00070C039C0C
S214402F4001F801F0038007000E000C000C0C0C1C6E
S214402F500C3C0C7C0CEC0DCC0F8C0F0C0E0C0C0CA3
S214402F600000030007803FF07CF8E01CC00CC00C5B
S214402F70C00C0000030C030C3FFC7FFCE30CC30CAE
S214402F80C00CE00C700C300C0000C00CC00CC00C28
S214402F90E01C7CF83FF0078003000000C000C00043
S214402FA0C000C000C000C000C000C000C000C000DC
S214402FB0FFFCFFFCFFFCFFFCFFFCFFFCFFFCFFFCF4
S214402FC0FFFCFFFC3134202D20414443000000002C
S214402FD0524553495354454E43494100430000002F
S214402FE010000020F8B500BFF8BC08BC9E467047ED
S214402FF055274000F1004000F8B500BFF8BC08BCBB
S20C4030009E467047CD004000DB
S214403008F00000004001000000093D0000000000FC
S21440301800000000FC02002064030020CC030020CF
S2144030280000000000000000000000000000000053
S2144030380000000000000000000000000000000043
S21440304800000000DC2F40000000000000000000E8
S2144030580000000000000000000000000000000023
S2144030680000000000000000000000000000000013
S2144030780000000000000000000000000000000003
S21440308800000000000000000000000000000000F3
S21440309800000000000000000000000000000000E3
S2144030A800000000000000000000000000000000D3
S2144030B800000000000000000100000000000000C2
S2144030C80E33CDAB34126DE6ECDE05000B00000087
S2144030D800000000000000000000000000000000A3
S2144030E80000000000000000000000000000000093
S2144030F80000000000000000000000000000000083
S2144031080000000000000000000000000000000072
S80440202D6E
